:060000000A128A11E92F2B
:100A26008316031306080738860008000A128A117F
:100A360024250A128A110A128A1113250A128A110A
:100A460008008316031388010508C339850083123D
:100A5600031388010508C339850008007E088A004B
:100A66007F0882000A128A1131250A128A11800033
:100A7600840A04087D0603190034FF0A0319FE0AD6
:100A8600352DF0006400831603178C184B2D4C2D62
:100A9600452D7008831203178D003F308316031708
:100AA6008C050C14831203170C080800F301F401DB
:100AB600622D0130F3070318F40A0030F4077408B6
:100AC600803AF2007108803A7202031D6C2D70089C
:100AD6007302031C6F2D702D5C2D08003F3400340B
:100AE600063400345B3400344F340034663400344A
:100AF6006D3400347D340034073400347F340034E0
:100B06006F340034043400340834003410340034B4
:100B1600203400340134F100831603178C18942D09
:100B2600952D8F2D7108831203178D0070088C0088
:100B36003F30831603178C058312031303108B1F94
:100B4600A52DA62DA72D03148B13831603170C159D
:100B560055308D00AA308D008C140C1183120313AE
:100B6600031CB62DB72DB82D8B170800F60076039B
:100B7600031DBE2DBF2DE92DF430F0000130F1002C
:100B86000A128A1159250A128A1107308312031391
:100B96000605F500073075060319D22DD32DDC2D79
:100BA6006503031DD72DD82DDC2DE5010608073971
:100BB600062E07300605F50007307506031DE42DE1
:100BC600E52DE72D0130E5000730062E02307606CA
:100BD600031DEE2DEF2DE72DF430F0000130F1006E
:100BE6000A128A1159250A128A1107308312031331
:100BF6000605F500073075060319022E032E042E8E
:100C0600D92D0608E72D08000A128A1119250A129D
:100C16008A1101300A128A11B9250A128A11831221
:100C26000313C80006304806031D1A2E1B2E2D2E50
:100C36000A306A020318202E212E252E6A08013E4C
:100C4600EA004B2E0A306A06031D2A2E2B2E4B2E47
:100C5600EA014B2E05304806031D322E332E3C2E5C
:100C66006A08F00000300A128A118E250A128A11CB
:100C76004B2E03304806031D412E422E4B2E0030CC
:100C86000A128A1144250A128A1183120313EA00F2
:100C9600831203136A08C600C7014608F80047080E
:100CA600F9000A128A1117270A128A110C2E0A1243
:100CB6008A110028F501F31F612E622E692EF209B2
:100CC600F309F20A0319F30A0130F500F11F6C2E3D
:100CD6006D2E722EF009F109F00A0319F10A700857
:100CE60071040319772E782EA52E0130F400842E78
:100CF60001300310F00DF10DFF3E031D7C2E013077
:100D0600F407F11F872E882E7B2E71087302031DB0
:100D16008E2E70087202031C912E922E982E700849
:100D2600F2027108031CF303F30201300310F10C05
:100D3600F00CFF3E031D992E0130F402031DA42E74
:100D4600A52E882E75080319A92EAA2EAF2EF209F4
:100D5600F309F20A0319F30A7308F1007208F000A6
:100D66000800F501F11FB82EB92EC02EF009F109C1
:100D7600F00A0319F10A0130F500F31FC32EC42E41
:100D8600CB2EF209F309F20A0319F30A0130F5062C
:100D9600F601F701700871040319D22ED32E082F1D
:100DA6000130F400DF2E01300310F00DF10DFF3E8F
:100DB600031DD72E0130F407F11FE22EE32ED62EA7
:100DC60001300310F60DF70DFF3E031DE42E7108EA
:100DD6007302031DF02E70087202031CF32EF42E0C
:100DE600FB2E7008F2027108031CF303F30276145B
:100DF60001300310F10CF00CFF3E031DFC2E0130F8
:100E0600F402031D072F082FE32E750803190C2F74
:100E16000D2F122FF609F709F60A0319F70A7708B4
:100E2600F1007608F0000800493084002030FA000E
:100E36001430FB0083130008FC00040AFD007A0846
:100E460084007C088000040AFA007D088400FB0BFD
:100E56001D2F5D3084003430FA000830FB00831308
:100E66000008FC00040AFD007A0884007C08800063
:100E7600040AFA007D088400FB0B322FF91B442F6D
:100E8600452F602F7908803AFF0080307F02031DCE
:100E96004E2F0A3078020318512F522F602F7808F0
:100EA600FA007A07203E8400831300088312031396
:100EB60088000508C339340485007908803AFF00A4
:100EC60080307F02031D692F0A307802031C6C2FC5
:100ED6006D2FE82F7908803AFF0080307F02031DCE
:100EE600762F643078020318792F7A2FE82F0A308C
:100EF600F0000030F1007908F3007808F2000A12D9
:100F06008A11B4260A128A11710883120313BD00CE
:100F16007008BC000A30F0000030F1007908F300D8
:100F26007808F2000A128A115D260A128A117108DF
:100F360083120313BF007008BE000030C3000030E8
:100F4600C2000030C1000030C0003D08C1003C08AE
:100F5600C0003F08C3003E08C200C401C501831299
:100F660003134408FA007A07403E840083130008FE
:100F7600FB007B07203E8400000888004408FA0036
:100F86007A07343E84000508C33900048500C8305A
:100F9600F0000030F1000A128A1159250A128A114E
:100FA600013083120313C4070318C50A0030C507AE
:100FB6004508803AFF0080307F02031DE42F02308F
:100FC6004402031CE72FE82FB22F08008313663074
:100FD600FD000530FE007130FF00493084000A1222
:100FE6008A1135250A128A11E601E701E801E901AD
:0A0FF600EA0183010A128A11072E96
:02400E00FB3F76
:00000001FF
